:10000000007000200D2A000021770000F92900006F
:10001000F9290000F9290000F9290000F929000058
:10002000000000000000000000000000F52A0000B1
:10003000F929000000000000952A0000F9290000BD
:10004000952C0000952C0000952C0000952C0000AC
:10005000952C0000952C0000952C0000952C00009C
:10006000952C0000952C0000952C0000952C00008C
:10007000952C0000952C0000952C0000952C00007C
:10008000952C0000952C0000952C0000952C00006C
:10009000952C0000952C0000952C0000952C00005C
:1000A000952C0000952C0000952C0000952C00004C
:1000B000952C0000952C0000952C0000952C00003C
:1000C000952C0000952C0000952C0000952C00002C
:1000D000952C0000952C0000952C0000952C00001C
:1000E000952C0000952C0000952C0000952C00000C
:1000F000952C0000952C0000952C0000952C0000FC
:10010000952C0000952C0000952C0000952C0000EB
:10011000952C0000952C0000952C0000952C0000DB
:10012000952C0000952C0000952C0000952C0000CB
:10013000952C0000952C0000952C0000952C0000BB
:10014000952C0000952C0000952C0000952C0000AB
:04015000952C0000EA
:1001540053B94AB9002908BF00281CBF4FF0FF312A
:100164004FF0FF3000F00CB8ADF1080C6DE904CE8F
:1001740000F010F8DDF804E0DDE9022304B0704774
:10018400704700BF034613F8012B002AFBD1181A4D
:10019400013870472DE9F04786468C460846089E8C
:1001A400154674461946002B40F0C1808542B2FAC8
:1001B40082F245D94AB1C2F1200300FA02FC95400B
:1001C40094402EFA03F343EA0C0C4FEA154EA8B2FE
:1001D400230CBCFBFEF80EFB18CC08FB00F943EA29
:1001E4000C43994528D9EB1808F1FF3704D29945F7
:1001F40002D9A8F102072B44A3EB0903A4B2B3FB71
:10020400FEFC0EFB1C330CFB00F044EA0344A0424A
:1002140014D92C190CF1FF3304D2A04202D9ACF149
:1002240002032C44241A43EA07401EB1D44000239D
:1002340034607360BDE8F0874746DDE76346F1E765
:1002440092BB431B01214FEA154EAFB2200CB3FB06
:10025400FEFC0EFB1C330CFB07F840EA03439845F5
:1002640061D9EB180CF1FF3004D2984502D9ACF1F6
:1002740002002B44A3EB0803A4B2B3FBFEFC0EFB69
:100284001C330CFB07F744EA0344A7424DD92C194D
:100294000CF1FF3304D2A74202D9ACF102032C447F
:1002A400E41B43EA0040C0E7C2F1200395409440B8
:1002B40020FA03F12EFA03F34FEA154E9040AFB241
:1002C4000343B1FBFEFC0EFB1C10190C0CFB07F8DE
:1002D40041EA0041884522D969180CF1FF3004D263
:1002E400884502D9ACF102002944A1EB08019BB274
:1002F400B1FBFEFC0EFB1C110CFB07F743EA0143A8
:100304009F420ED9EB180CF1FF3104D29F4202D95F
:10031400ACF102012B44DB1B41EA004193E7604648
:10032400E3E76146F7E76046A4E76346B8E783423C
:1003340006D916B9002108467CE7C6E900E0F9E7CA
:10034400B3FA83F78FB9834201D3724508D8BEEB61
:10035400020460EB030301209C461EB9002169E7F7
:100364003846FAE7C6E9004CF8E7C7F1200CBB4071
:100374000EFA07F522FA0CF42EFA0CF1BA401C43DB
:1003840020FA0CF3B8404FEA144901431FFA84FEE3
:10039400B3FBF9F809FB18300B0C08FB0EFA43EA1F
:1003A40000439A4540D9E31808F1FF3004D29A4536
:1003B40002D9A8F102002344A3EB0A0389B2B3FBD8
:1003C400F9F809FB183308FB0EFE41EA03418E4598
:1003D4002CD9611808F1FF3304D28E4502D9A8F153
:1003E4000203214443EA0040A1EB0E01A0FB029862
:1003F4004145CE46434602D306D14D4504D2013889
:10040400B9EB020E68EB0403002EA7D0B5EB0E0285
:1004140061EB030101FA0CFC22FA07F3F9404CEA00
:100424000303C6E9003199E74046C5E74346D9E7E7
:1004340030B587B006F0FAFB00F0C6F84921314820
:1004440007F056F800F0B8F800F070F878B14FF003
:100454005023D3F800340BB1DB0708D549212A48CF
:1004640007F046F801F0CEFC284802F0D1F803A8C2
:1004740000F060FD264B1B68834204D045212548CB
:1004840007F036F8FEE74921059A234807F030F8CB
:10049400039922484B7D0A7DC98A0091492107F0BE
:1004A40027F849211E4807F023F89DF8100002A9F7
:1004B40000F060F8044608B107F0A0F9029A059B21
:1004C400184D1344039A128913442B6003F05CFE05
:1004D40001F010F902F0B4FA84F30B8884F30A886B
:1004E4002B681B6883F3088884F31488BFF36F8F29
:1004F400BFF36F8F2B685B68984745210A4806F065
:10050400F7FFFEE792AC0000ABAC000068A9000066
:10051400D4110020CFAC0000F2AC000021AD0000EB
:100524003FAD0000D002002064AD000073B50F4C55
:10053400204609F07CFEB8B12569A6682B680D2118
:1005440043F400532B6020463368094A98472046F9
:10055400736801A9984720B92B6801985840C0F3E3
:100564004030003818BF012002B070BDA4A50000BF
:1005740011000100024608B538B1054800234521A1
:1005840006F0B6FF6FF0150008BD0860FCE700BF79
:1005940087AD000021B1012906D06FF01500704726
:1005A400044B53F830007047024B03EBC003586808
:1005B400704700BF70A900004FF4C051014804F017
:1005C400D7BE00BFF21C0020124B134AC2F80036FB
:1005D400C2F80436C2F80836C2F80C36C2F810362F
:1005E400C2F81436C2F81836C2F81C3602F5805226
:1005F400C2F80036C2F80436C2F80836C2F80C361F
:10060400C2F81036C2F81436C2F81836C2F81C36CE
:10061400704700BF3546526E008001502DE9F04FFF
:10062400D7B0629CDFF86C810DF13809D8F800600E
:100634000394619CCDF804900294609C82460094DB
:100644008B461546639F06F0F2FA28B1D8F800608D
:10065400304657B0BDE8F08F57B14A4616AC134642
:1006640003CBA342386079601A4607F10807F6D134
:100674002946504606F03FFD00230D9000932A467C
:100684004FF6FF73594607A806F01BFB07460028E0
:10069400DCD1DDE90C32294650469C1A06F011FCE7
:1006A400A042D3D34FF0FF34DFF8ECB00DF11603C2
:1006B40005AA06A907A806F054FB0028C6DB64D1E6
:1006C400069907A806F099FB50B94FF6FF71BDF8DB
:1006D4001600324A32F8023B8B42B7D09842F9D125
:1006E400BDF816A0BAF1100F17D0BAF1200F2BD015
:1006F400BAF1010FDAD1BDF81430202BA6D8284660
:10070400069916AA06F00FFF00289FD19DF8141031
:1007140016A800F047F80446C8E7BDF81470202F67
:1007240094D13B462846069916AA06F0FCFE0028FA
:100734008CD13A46484616A906F06DFB184B1B6847
:10074400834283D10127B1E7002C1BDBDBF80030A7
:100754009C4217DABDF81430B3F5807F7FF476AF8E
:100764002846069916AA06F0DEFE00287FF46EAF2E
:10077400E4B251464846BDF81430009416AA00F07D
:10078400DDF806464FF0FF3490E7002F7FF460AFAA
:100794005CE700BF0400002078A9000064AC0000FE
:1007A400D41100202DE9F041202980460D46A2B045
:1007B40005D94FF0FF34204622B0BDE8F081002473
:1007C400114B124E1F68BC42F3DA08A809F03CF83A
:1007D400002108A804F004FF736808A81A6856F8F2
:1007E400081B09F03AF8694608A809F075F808A842
:1007F40009F02EF82A464146684609F05EFE0028B4
:10080400D9D00134DFE700BF78A900007CA900003B
:100814002DE9F04789461946464BADF5AE6D1E6885
:10082400DDF89035B3F5807F7ED1202A7CD15CAA97
:1008340004F08EFE0446002876D19DF86F32BC2B5E
:1008440072D10DF19008DF27454601900AA808F0FF
:10085400FBFF00210AA804F0C3FE20220DF24F2161
:100864000AA808F0FAFF04220AA80DEB020108F016
:10087400F4FF02A90AA809F02FF80AA808F0E8FF73
:10088400202FBA46A8BF4FF0200A9DF807304046F3
:100894000133524602A9A7EB0A078DF8073009F085
:1008A400D6FD002FD044D1DCAC462946DF225CAB18
:1008B400087813F8017B013A80EA070001F8010B7C
:1008C400F6D12B7803F07F032B701CF8017B5FBB00
:1008D4000134BE2CF9D195F8BE30012B24D10AA8DD
:1008E40008F0B2FF39460AA804F07AFE0822124939
:1008F4000AA808F0B2FF494620220AA808F0ADFF72
:1009040020220DF24F110AA808F0A7FF02A90AA895
:1009140008F0E2FF0AA808F09BFF20220DF24F2105
:1009240002A806F078FA064630460DF5AE6DBDE82D
:10093400F08700BF04000020ADAD00002DE9F04FAA
:100944009A46A3B02F4B074604A89DF8B0501E68E2
:100954008846914608F039FF0922012104A804F0D1
:10096400B9FD294B03AA53F8354003EBC5035B6873
:1009740002941B6802A81C442146302308F010F896
:10098400002838D1DDE9023213449C4233D1214698
:1009940006AA02A808F018F868BB0DF1200B5A4605
:1009A400214602A808F010F8054620BB06A808F066
:1009B400BDFB029B05909C421DD12B462A46CDE9E6
:1009C400005B06A904A808F0BDFEA0B904A804F0C1
:1009D40099FD80B906A808F0A9FB059004A808F0C1
:1009E400F8FE504507D100904B464246394604A8CC
:1009F400FFF70EFF064604A808F0EDFE304623B0CC
:100A0400BDE8F08F040000207CA90000094A4000E2
:100A14000B7852F820108B4209D0013052F8200094
:100A2400834214BF4FF0FF304FF4F07070474FF41F
:100A3400F070704784A900001FB5602303FB010018
:100A4400046A1023A1686A462046103906F06BFD3B
:100A5400034628B122784521034806F049FD0024C5
:100A6400204604B010BD00BFB5AD000038B50E4B34
:100A74000446002918BF0B46436203F5F0630121C5
:100A8400436506F020FA58B90221204606F01BFA05
:100A9400054638B9206A06F085FD6066284638BDEB
:100AA4000125FBE70925F9E7D4020020302310B51E
:100AB40059434218146A0CB906F0A0FE41580B4B76
:100AC400994206D1D16813895B1802D25189C91899
:100AD40001D3002009E0A3689942FAD2136940F6D1
:100AE4000C621A420CBF0120002010BD3DB8F396E1
:100AF4001FB5302303FB02010A6A0AB906F07EFE21
:100B04000023CDE9023301934FF480730093034B28
:100B1400FFF784FD05B05DF804FB00BFF23400204C
:100B240000487047D815002073B50D4600210446CF
:100B34002846CDE9001106F0A9FA18B323681B4E24
:100B4400B34206D1204601AA06F080FB08B106F0A4
:100B540055FE236BB34206D16A460121204606F0B6
:100B640075FB0028F3D1DDE90032934288BF01937D
:100B7400019BAB6020462946019A00F053FC0020FB
:100B840002B070BD01462046FFF756FF0646002816
:100B9400DDD005F1080106F04DF90028D7D1AB6886
:100BA4003046019306F0BEFCE4E700BF3DB8F3967F
:100BB4002DE9F043DFF8A490076D054688461646F4
:100BC400D9F8004089B00FB906F018FE012106F0EB
:100BD40006FA18B9296C11F0100109D039462846D3
:100BE40006F091FA1E4B1C68204609B0BDE8F0835C
:100BF400404606F04BFA08B3023E012E1ED82023CD
:100C04006A46384606F08FFC0028EDD1154B009A51
:100C14009A4213D14521144806F06AFC104B1C6813
:100C2400124B1B68A342DFD04521114A114806F03C
:100C34005FFC0121384606F0CDF9D3E701212846AF
:100C4400FFF734FF10B9D9F80040E9E70122414623
:100C54002846FFF74DFF0446E2E700BF04000020EA
:100C6400000000203DB8F396E1AD0000D41100204F
:100C74002DAE000037AE00002DE9F04B0E46904635
:100C840099460024099FDFF848B0BC4201D30020F4
:100C94000EE03D1BB5F5806F28BF4FF480653046EC
:100CA4002B460B4A04EB090106F03DFC10B1012070
:100CB400BDE8F08B08992B465A464046611806F069
:100CC40047FC0028F3D12C44FFF77EFCDDE700BF8E
:100CD400D811002070B586B00E46044606F0A4F97B
:100CE400014620B14521894806F002FCFEE7204672
:100CF400FFF7BCFE054678B900222046114606F0EF
:100D04007BF9054610B300225721814806F0F0FB19
:100D1400012384F8603009E0F02257217D4806F071
:100D2400E7FB01239D4284F86030E5D194F86030FC
:100D3400042B8DF80F3000F28E80012B00F293808B
:100D440000F0A980FF2384F86030A4E0204600F07E
:100D54006BFA0028DCD002A806F08FF90146204681
:100D640006F018FA18B12A4657216B48CEE702A8B4
:100D740006F08CF980F0010102AA2046C9B206F0FF
:100D84003BF902460028BED102A806F07FF9C8BB91
:100D9400204602A9FFF7C8FE08B106F02FFD9DF812
:100DA4000F30DA1E012A84F8603019D800F0EAF80E
:100DB4009DF80F3028B9023B022B08D994F8603013
:100DC40011E0FF22023B022B84F860200DD80020A2
:100DD40000F0C2F80028F1D0FF2384F8603004E06A
:100DE4009A1E022AF3D9FF2B04D145214B4806F061
:100DF4007FFBD2E700222046114606F0FDF80028CA
:100E040086D0CAE79DF80F30012B18D1104604F0A4
:100E140027FD831E022B05460ED8024602A9204652
:100E2400FFF7C6FE3E4B1B68984205D03D4B1D683C
:100E3400A84214BF0525012584F8605076E72046B2
:100E440002A9FFF7B5FE364B1B68984214BF052371
:100E54009DF80F305DE7052B7FF474AF002000F0A0
:100E640091F8C0B16EE7204602A9FFF75DFE0028A5
:100E740093D194F86030DA1E012A0AD800F082F87F
:100E840018B9002000F068F828B1FF2384F8603016
:100E940083E7022BF5D094F86030FF2BA5D0002215
:100EA400012B019211D01146204606F0A5F860B13D
:100EB4001D4B1D681022002102A809F0EFFA2046FC
:100EC40006F0CAF8284606B070BD2268174B9A424D
:100ED40005D000234521164806F00AFBE8E7002167
:100EE400204606F09FF80028E2D1019B01330193CC
:100EF400019B012B00D0FEE7206A05F07AFE3071D9
:100F0400236A5B683460B360054BD2E75FAE0000D0
:100F1400D2AE000090AE0000FEAE000028AF00008C
:100F2400D411002000000020040000203DB8F396F6
:100F340034AF000038B5074D0446284606F099F84A
:100F440021462846FFF7C6FE0446284605F0D5FF8D
:100F5400204638BDD815002013B5094B01A913F854
:100F6400300000F063FE48B9019808F0B5FD04466E
:100F7400019806F0D7FA204602B010BD0124FAE722
:100F84008CA900001FB50F4B01A913F8300000F025
:100F94004DFEA8B9019802A904F00CFC044668B9F6
:100FA4009DF80B30032B03D1019808F05DFD044636
:100FB400019806F0B7FA204604B010BD0124F7E703
:100FC4000124F8E78CA900002DE9F04F06460C46F1
:100FD40091461D4685B09BB9302303FB01030129CB
:100FE400D3F820A079D1284604F03AFC042877D01D
:100FF400A046736D5968BAF1000F73D106F0FEFB79
:10100400184606F043F88046002852D1014630467F
:10101400FFF712FD20B90127384605B0BDE8F08F6F
:1010240003A905F007FF0028F5D10399304606F01F
:10103400E3F8736A07465968EB79042B0CD1FCB1C9
:10104400012C2AD12B68013BBB4225D825D12C7910
:10105400033C18BF012420E04046019104F000FC49
:1010640004280199EBD0F4B92C68012C03D813D1CE
:101074002B79022B10D1BC428CBF002401240CE03C
:101084002B68013BBB4206D90124302303FB0463D4
:10109400D3F820A0AFE702D000240021F5E72B7994
:1010A400022BF9D1F0E7012CF7D12B68012BF3D8EF
:1010B400EAE7302303FB0463D3F820A0EB79042B85
:1010C40006D0002004F0CCFB042801D0012C01D070
:1010D400002190E7736D59688DE74FF00108F7E739
:1010E400A046F5E720234A465046019106F01BFA34
:1010F400074600288FD1D9F80030DFF86CB0019989
:10110400B8F1000F1ED05B451ED0012C29D104F08C
:10111400A7FB042814BF3946736D4A4608BF5968B3
:1011240050462023019106F0FEF900287FF473AFA6
:10113400D9F8003001995B4513D1002D3FF46CAF11
:10114400B16606E05B450CD1002D3FF465AF012C80
:10115400F6D0D9F80070B7EB0B0718BF4FF0FF3784
:101164005AE7002DF5D157E73DB8F3962DE9F04F36
:1011740006460D4685B0014600201746FFF746FC9B
:10118400041E4ADB30466D6E05F047FE5FFA85F9B2
:101194004FF0000A4FF0010B4FF0FF35631E09FBBF
:1011A400030844B9BAF1010F27DD45211D4806F0B3
:1011B4009FF906F023FB631E00934146012330464A
:1011C4000DF10F0206F0AFF9031E019327DB012294
:1011D40030460DF10F0108F0E3FB019B40B15B4584
:1011E40001D00AF1010A9B46009CA8EB0908D8E744
:1011F400B5F1FF3F08BF2546F5E76B1C09D0012375
:101204007B7145FA03F305F00105013301353B60B9
:101214003D71204605B0BDE8F08F0724F9E70124AD
:10122400F7E700BF59AF00002DE9F041876A866DEA
:101234000446B74209D07B1CB34206D05721184854
:1012440006F056F90020BDE8F081F02F1AD9572195
:101254001448F5E7636A03EBC503D3F80480636DB0
:1012640003EBC5035B68434502D057210E48E7E70B
:101274000135AA42EED8204606F045F830B9572188
:101284000A48DDE70025721EA846F2E7B74205D9F1
:10129400636A03EBC5035B684345E6D10120D2E7EB
:1012A4007CAF0000B4AF0000E3AF00000FB000005B
:1012B40010B588B0044604A9006A04F07BFA08B1AA
:1012C40006F09CFA9DF81020012A44D0264B2749A9
:1012D400032A08BF0B469DF81320492102929DF86A
:1012E4001220234801929DF811200092214A06F011
:1012F400FFF8206D06A904F05DFA04460028DFD14A
:101304009DF81820012A28D0174B1849032A08BF32
:101314000B469DF81B20492102929DF81A2014487F
:1013240001929DF819200092134A06F0E1F89DF805
:101334001030012B13D19DF81230032B0FD19DF8DF
:101344001830012B0BD049210C4806F0D1F80224A7
:10135400204608B010BD0A4BBDE7094BD9E7492127
:10136400084806F0C5F8F3E748B0000051B00000A3
:1013740065B0000057B00000A6B00000B6B0000091
:101384004CB00000D5B0000070B5CB790646042BF4
:101394000D46144686B036D10B68012B33D1104666
:1013A40004A904F007FA08B106F028FA9DF8102001
:1013B400012A2AD0164B1749032A08BF0B469DF869
:1013C4001320492102929DF81220134801929DF89E
:1013D40011200092114A06F08BF89DF81030032B6F
:1013E40011D12146304605F08EFE0028DCD120467E
:1013F40008F072FB0028D7D12A462146304605F072
:1014040097FE0028D0D106B070BD054BD7E700BFCA
:1014140048B0000051B0000065B00000A6B0000064
:101424004CB000002DE9F04F04461646AE488BB090
:101434000D46492106F05CF83146204605F0DCFEF5
:10144400636AD4F8208082465E68B8F1000F01D147
:1014540006F0D4F9276D002FFAD0284605F016FEC1
:10146400F8B1606E05F04AFDA36A03F1FF39002369
:101474003344834202D209F1FF39F9E7CA4510D354
:1014840057219A4806F034F809FB06F357210AFB62
:101494000662974806F02CF80123EB710BB0BDE807
:1014A400F08F3A4629462046FFF76EFF2B68012B42
:1014B40015D1EB68022B0CD04146204605F023FEE3
:1014C4000028C5D12A464146204605F031FE0028B1
:1014D400BED13946204605F016FE0028B8D10DF1DC
:1014E4002602404609A905F0B3FC01236B71BDF83F
:1014F40024202389134462891344E268013A324464
:101504001344B3FBF6F3628F0393238F1344BDF8A4
:1015140026201344E26B013A32441344B3FBF6F33E
:101524000493EB79042B5BD1D1462B68AAEB090217
:10153400013B9A42C0F0BB80636A53F839201B68B0
:10154400A2EB030B636D03EBC90291681A682B7954
:10155400012B40F0A980039B994515D8891A0023D3
:1015640032463846059105F0EAFC00287FF470AF56
:1015740005995B4600913A46414620460196FFF79D
:101584007BFB00287FF464AF2946204605F08BFDE1
:1015940002232B7100287FF45BAF049B994513D879
:1015A400002332465946404605F0C9FC00287FF422
:1015B4004FAF5B46424639462046CDE900B6FFF7B9
:1015C4005BFB00287FF444AF2946204605F06BFD01
:1015D4002B6801332B6001232B71002867D037E778
:1015E400002004F03DF904289ED04FF000092B6838
:1015F400013B4B4573D8636A1A68059253F8392046
:1016040003EBC9039B68059906932B79A2EB010BA5
:10161400626D012B52F8391012685ED1039B4B4561
:1016240015D3891A002332463846079105F087FC02
:1016340000287FF40DAF07995B4600913A46414676
:1016440020460196FFF718FB00287FF401AF2946D6
:10165400204605F028FD02232B7100287FF4F8AE04
:10166400049B4B4515D3002332465946404605F0AA
:1016740066FC00287FF4ECAEDDE9052339469B1AAD
:1016840020464246CDE900B6FFF7F6FA00287FF47B
:10169400DFAE2946204605F006FD2B6801332B609A
:1016A40001232B71D8B1D3E6022B3FF476AF09F1B5
:1016B400FF39D1457FF639AF002332461946384603
:1016C40005F080FC00287FF4C3AE3946204605F0BF
:1016D4001AFD00283FF4E2AEBAE6022BC0D009F1AD
:1016E4000109D14583D9D9E6ECB0000017B1000057
:1016F40046B10000BFF36F8F72B600234FF0FF3086
:10170400094A03F120010133102B42F82100F8D1DA
:1017140000234FF0FF30044A03F160010133102B22
:1017240042F82100F8D1704700E100E0014B1B684A
:10173400184700BF0800002030B585B004460D46A8
:1017440010220021684608F0A9FE02238DF8023019
:10175400044B2A4621466846019305F0F1F805B08A
:1017640030BD00BF3117000080B505460E46174650
:10177400984604F03FFE034608F0D2FE0446DFF824
:101784001890424649F8003039463046A84754F884
:10179400090001F067F900BF08000000044608B51D
:1017A400EFF31183202383F31288BFF36F8F02F0CA
:1017B400EBFC204601F0BAFD024805F0B4FD05F04B
:1017C400C6FFFCE785B200002DE9F043079D15B97B
:1017D4001560002012E00324B5FBF4F404EB440785
:1017E400BD4218BF0134B4F1804F09D2A4000134C2
:1017F4008C4200D838B96FF00B001460BDE8F08358
:101804004FF0FF34F7E704460021DFF8B4E0B942B3
:1018140003F1030C04F104062BD3A942274623D277
:1018240001F1010CAC451F7828BF002324494FEA7D
:10183400A70E38BF5B7811F80EE0AC4584F800E0E1
:1018440001EB131E2EBF3D239B0003F03C034FEA24
:10185400071738BFCB5C07F030071EF80770A3707A
:101864003D2367703746E3700023381A10603B70DD
:10187400AFE71CF8034C1CF8023C4FEAA4091EF81D
:10188400099024011CF8018C04F0300406F8049C2F
:101894000EEB131919F804409B0006F8034C03F0EF
:1018A4003C030EEB9814E35C08F03F0806F8023C96
:1018B4001EF80830344606F8013C03316346A6E7B7
:1018C4002EB300002DE9F04300273C463D46DDF8E9
:1018D4001CE0DFF8288175451FD3E4BB00201460A9
:1018E400BDE8F0830136764533D013F806C0BCF169
:1018F400200FF7D0AEEB0609B9F1010FA6EB0505F1
:101904000DD0BCF10D0F0AD103EB060999F8019033
:10191400B9F10A0F6ED1751CDDE72E46E3E7BCF181
:101924000A0FF8D02DB9BCF13D0F05D10137022FB4
:101934000DD96FF01500D3E71CF0800FF9D118F81A
:101944000C507F2DF5D03F2D01D8002FF1D101345B
:10195400E1E73546C1E74FF0060C04F00706E4085A
:101964000CFB06F60CFB04F40736E41B04EBD6046C
:1019740070B18C420CD80027014603263C46DFF8A0
:101984007CE0DFF87C801D449D4205D10C1AA5E75C
:101994006FF00B001460A3E713F8019BA9F10A0C84
:1019A4005FFA8CFCBCF1160F04D848FA0CFC1CF04E
:1019B400010FE9D01EF809C00134BCF1400F08BF83
:1019C400013E0CF03F0C042C4CEA8717DCD17EB1AD
:1019D4003C0C012E0C7002D101310024D4E7022EFC
:1019E4004FEA17244C7016BF8F7002310331F4E7AD
:1019F4003446C9E7002DA2D09BE700BFAEB2000079
:101A0400F6FFBFFF2DE9F047058B044628079046F3
:101A140011D4022905F0070540F0CC80204605F0DA
:101A24008FFC78B10138218B042811D8DFE800F04D
:101A3400C2106D85950001290CBF45F0100545F0D5
:101A44002005258388F31188BFF36F8FBDE8F087E5
:101A540001F0070AAA4500F0A5800027B9463E46D2
:101A6400A368002B00F0BC8041F00801218388F3B7
:101A74001188BFF36F8FA168002900F0BA800D6848
:101A8400002900F0B680334652462046D1F804803F
:101A9400C047002D76D02B6829461D46F0E701F09B
:101AA40007035A1F012A1BD8002221F00701062B25
:101AB400276889B2C4E9002209D13B4603E0628B5E
:101AC400013262831B68002BF9D141F002012046E8
:101AD400218305F035FC00287AD041F0200176E01E
:101AE400042B0AD121F0070189B22046218305F095
:101AF40027FC10B141F020012183218B01F0070A5A
:101B0400AA454FD00027B946AAE7236921F0070167
:101B140041F00601062DD3F8009021832DD1B9F1AF
:101B2400000F3FD041F00801218388F31188BFF3EF
:101B34006F8F20463949C84729E021F007012369FE
:101B440041F0040189B2042DD3F804902183E6D036
:101B540000274FF0040A3E4682E721F0070123697B
:101B640041F0050189B2052DD3F808902183D6D020
:101B740000274FF0050A3E4672E700274FF0060A99
:101B84003E466DE72B4687E7B9F1000FD1D1EFF35D
:101B94001188202383F31288BFF36F8F238B23F0E4
:101BA40008032383258BEA062ED525F0100323830F
:101BB40005F007056669218B002EBFF670AF002380
:101BC4002768C4E9003321F0070141F001012183B2
:101BD400218B4FF0000901F0070AAA457FF440AFBA
:101BE400002F9CD041F00801218388F31188BFF3B2
:101BF4006F8F002FC8D03D68394633465246204681
:101C040005F0CAFB2F46F4E7AB067FF51BAF25F0C2
:101C14002003238305F0070500E700BFC973000014
:101C2400014B03600020704798A9000070B5104B69
:101C34000D461C68B4B10F4B196800238B4202DBBC
:101C44006FF0010070BD224612F8106B864202D07C
:101C540014460133F2E7E06808F0E9FA28B10020FD
:101C64002C60EFE76FF00C00ECE76FF01200E9E78F
:101C74000C00002098A9000010B5436888B00293B6
:101C840083680C46CDE9033200230A68C068CDE9B5
:101C94000623054901AA059305F097FE079808B99C
:101CA400059B236008B010BDC5750000F7B5254E2F
:101CB40030688368DB6B03B1984730688368DB6AFC
:101CC400002B31D1204C214D306883681B69002BD7
:101CD4002DD001220DF107019847012827D123684F
:101CE40043B92B682BB369681A688B422A6000D108
:101CF4006A602360164A9DF8070011887F2904D87A
:101D040023684F1C0B44178018720A28DCD100206A
:101D140023681188186059600E494D6875B9C1E986
:101D2400003310802060CEE798470028CAD103B062
:101D3400F0BD4521084805F0DBFBF8E72B604B605C
:101D4400EFE700BF9C1A0020441600205416002020
:101D5400F01C00204C1600206EB3000010B5044B9C
:101D6400044618688368E1B25B689847204610BD52
:101D74009C1A0020F8B5054616460846EFF311876D
:101D8400202383F31288BFF36F8F1B490B684BB179
:101D94001A4C62689A4205D000221A60626862B9DD
:101DA400C4E90033164A136853B987F31188BFF3A3
:101DB4006F8F18460B603360F8BD13606360F1E702
:101DC400D2F804C01C686345146008BF546087F3EC
:101DD4001188BFF36F8F5C680B60A042D8BF00F11D
:101DE400FF3403F108012246284608F030FB0023A3
:101DF400601C2B550123DEE74816002054160020F2
:101E04004C160020002313B51C462049204AC1E982
:101E14000033C2E900331F4A4868146020BBC1E99B
:101E240000220133082B02F18802F5D11A4C1B4819
:101E3400206008F0FCF928B32068836823B11B6C88
:101E440013B100221649984720688368DB6A0BB1F6
:101E5400984760B1206883681B69002BFAD001227F
:101E64000DF107019847F4E702604A60D9E70022C0
:101E74000C4B20681A8083681B6A03B198470020C2
:101E840002B010BD4FF0FF30FAE700BF5416002037
:101E94004C1600205C1600209C1A0020DCA50000D3
:101EA400B11C0000F01C002041F204432DE9F04F66
:101EB400EFB0ADF80C3040F606130026DFF8D490EE
:101EC400ADF81030D9F80010334BDFF8D0801D681E
:101ED4000B78A5EB08055A1C62F302030B706BBA6E
:101EE4004B808B8808225BBA8B804E70304605F09D
:101EF4009FFC2A46414605F09BFC0746ACB204F120
:101F04000A03D9F800201FFA83FB5BBAADF8183036
:101F140013680C34CDF81A30536841462A460DF143
:101F2400180A7FBA0DF12200A4B2CDF81E3008F0D1
:101F34008EFA2AF80B705346ED21009405AA32A8B4
:101F4400FFF742FCBDF8147007B3154D02212B684E
:101F540004A85B6898473446DFF848803E1B7C2E13
:101F6400A8BF7C262B6832AA101931465B689847B3
:101F74002B68012140465B6834449847A74205DD3D
:101F84002B6802215B6803A89847E7E76FB0BDE8B8
:101F9400F08F00BF001B0020B81A0020F23500208B
:101FA400041B0020DFAD000038B505460A4C0A21A9
:101FB400204608F00CF902222046084908F0FAF8F5
:101FC4002946204608F0D3F820460A2108F007F9EC
:101FD400BDE83840FFF768BFB81A0020ACB3000072
:101FE40073B583680C469A420646114614D294424D
:101FF40014DC6A4604F0FFFD034668B9DDE90025F8
:1020040015442A1B2146304604F099FF024640B18C
:102014004521054805F06CFA6FF01504204602B01E
:1020240070BD2C46FAE700BFAFB300002DE9F047BE
:102034004FF0FF34D4B00B46059406940794012165
:1020440000240AAD0246C5E9004430A80091CDE958
:10205400014404210894099408F000F84022214620
:1020640020A808F01BFA8B4B03211C9305230422A0
:102074001D93894B0DF11809CDE91E39874B88480A
:102084002193884B05AFCDE92335874B07AE2693C3
:10209400864BCDE92B01CDE92836CDE92D372791A3
:1020A40009AB1CA930A8229205F0D3FA20B303246B
:1020B4000A217F4808F08BF87E4902227C4808F008
:1020C40079F821467A4808F052F84CB97449032249
:1020D400774808F06FF8784B7548196808F051F89C
:1020E4000A21734808F07BF8FFF7DEFE089805F034
:1020F40019FA54B0BDE8F0873B68D5E900845A1C4E
:10210400D5D0B8F1000FD2D06C4A33B9D9F8001049
:10211400B1F1FF3F18BF0B46136000211068FEF7B2
:1021240039FA08A9C0B2FFF781FD0028BFD13B6886
:10213400614D002B4BD1089F2B603846D7F808908F
:1021440004F06BFE5E4A0146384604F054FD28B1A3
:1021540045215C4805F0CCF90124A9E733684B45D7
:10216400A5D8594A1060594A13602A68564E224429
:1021740031680898013AFFF733FF0028306096DB96
:10218400089805F00FFAB4FBF0F303FB1046DFF8F0
:102194003C912B68A71B1C44D9F8003008989C423A
:1021A40038BF002605F0FEF9012806D9089805F085
:1021B400F9F9013818EA000F4AD13B46424629682A
:1021C400089805F0C5F900287FF471AF2FE02A685C
:1021D400934201D000246BE73C4A234412689342A3
:1021E400C3D964E7BA45089828BFBA4605F0E1F9AF
:1021F400402201460CA808F051F9524641460CA869
:1022040008F025F95346296808980CAA05F0A0F9A6
:10221400044600287FF44CAF2B68D04453442B6011
:10222400A7EB0A07089805F0BDF9B842DAD996B9C0
:102234002B68D9F8002033443B4493422B60C9D126
:102244001F4B08981A681146FFF7CAFEC40F2FE700
:102254004FF0400AE6E7089805F0ABF9082201467A
:102264000CA808F01BF9324608EB07010CA808F08B
:10227400EEF8DDF82080296840467C1805F092F9D4
:10228400214603460CAA404605F062F900287FF473
:102294000EAFCDE7B0B00000B39E0000D1B3000094
:1022A400DAB30000BD9E0000D6B30000B99E000062
:1022B400B81A0020ACB30000B01A0020B41A0020F1
:1022C400A81A0020DEB30000A41A0020A01A0020DF
:1022D400F0B50C68164F85B002380D46C4F5806120
:1022E4000090144B381903AA0131FFF7EBFA0446A6
:1022F400D0B92B68039A1344022B2B6011D93E8862
:10230400023B76BAB6B29E420BD13246B91C05F0F6
:102314008FFA30B9022E04D92B689A1E2A60FC5415
:102324000124204605B0F0BD4FF0FF34F9E700BFAB
:10233400973600209A3A0020002307B50221009323
:10234400034AA423034807F04CFF03B05DF804FBE1
:10235400F2350020B81A00202DE9F0470729044679
:10236400AEB040F23881037813F0050F40F03381AA
:102374004388A1F108055BBA9BB2AB42C0F02B8144
:10238400964B186083885BBA8380FFF7D5FFA688D5
:10239400012E40F00681E37923B1012B00F0F9808E
:1023A400082013E12578FEF7BBFB044604F061FE28
:1023B400204604F039FE05F00705024650B14521D8
:1023C400874805F095F8204604F097FD0120FFF7B3
:1023D400EBFDB6E001462046FEF748FB024638B165
:1023E4004521804805F084F8204604F035FEEAE7EC
:1023F400002D40F0C68031467B4807F0E8FE0622F7
:102404007A49794807F0D6FE0521774807F0DBFEC4
:10241400284603F025FADFF8D881266A0746D8F85B
:102424000090002E78D04FF0000A08E0042F4FF0FF
:102434000105F8D0636DD3F804A0C4F868A0202384
:102444000EAA5146304605F06EF86A4B0E9A9A422F
:102454000CD10023CDE9023301934023324600938B
:1024640020461EAB0EA9FEF7D9F88146624B1B68C5
:102474004B4550D10023324600930EA94FF6FF730B
:1024840007A8CDF834A004F01CFC00285ED04FF05F
:10249400FF361421544807F09AFE58490422524842
:1024A40007F088FE2946504807F06BFE4EB9042217
:1024B40053494D4807F07EFE20224B4816A907F0E9
:1024C40070FE07224F49484807F074FEBDF84E30AD
:1024D400402101939DF84D304B4A00931EA89DF86E
:1024E4004C3004F003FA149B4BB1421E3E2A06D82A
:1024F4001EAEC0F14001454A304404F0F7F91EA86D
:10250400FDF740FE1EA90246374807F053FE14218A
:10251400354807F064FE25B9266DD8F80090002EE2
:1025240084D10521304807F056FE01212E4807F0DA
:1025340056FEFFF7B9FC204604F08EFD204604F059
:10254400DCFC2EB0BDE8F047FFF7F6BE0DF1160334
:1025540005AA06A907A804F004FC002897D1BDF831
:102564001630102BF2D1BDF81430202B8FD1304609
:10257400069916AA04F0D7FF061E18BF0126764254
:1025840087E7204604F068FD204604F0B6FC0820E6
:102594001DE7294604F108002EB0BDE8F047FFF717
:1025A40045BD002E7FF4FCAEE379012B0DD0052B45
:1025B4007FF4F6AE3046FFF7F7FC4FF400500021ED
:1025C40007F0E1FE0120FFF7E9F830462EB0BDE840
:1025D400F047FFF7E9BC2EB0BDE8F087001B0020F0
:1025E40019B400003DB40000B81A00205DB4000026
:1025F400040000203DB8F396D411002064B4000018
:1026040069B400006EB4000076B4000082B4000027
:102614000123F7B5002405461C4F1D4E3B701D4B8E
:10262400009418603B780BB903B0F0BDFDF7CCFF04
:10263400C4F580612B6801AA01313019984700283C
:10264400019B01DC002BEDD004442BB940F2014383
:102654009C42E7D10024E5E73378062B09D173784F
:10266400092B0BD1002300936946A01EFFF730FE0F
:1026740004E0042B02D17378142BF5D00128E9D19E
:10268400009905480239FFF767FEE3E79636002014
:10269400983A0020041B00209936002008B504480D
:1026A40004F041FEBDE80840024804F03CBE00BF0F
:1026B40086B40000B7B4000008B50348034A0021FB
:1026C400121A05F01DF808BD10010020C03E0020BC
:1026D400074808B5074A0849121A05F013F8BDE877
:1026E40008400648064A0749121A05F00BB800BF0D
:1026F400000000200C010020B0B600000000002003
:1027040000000020B0B6000030BFFFF7FDBF00BFDF
:102714002DE9F04105460B4EDFF82C80324606EBDE
:102724000807CC1B2046094907F091FEA019424630
:102734000021083C07F0B2FE2C6707F10800BDE851
:10274400F08100BF00000000080000005CA9000048
:10275400054B5A699B689A421FBF044A536843F069
:1027640080535360704700BFC41C002000ED00E09C
:10277400154B9A6A12F0007F9A6A14BF1E201D201E
:1027840012F0807F9A6A18BF1F2012F4801F9A6A81
:1027940018BF022012F4002F9A6A18BF212012F4E5
:1027A400802F9A6A18BF222012F4003F9A6A18BF39
:1027B400232012F4803F9A6A18BF24206FEA024251
:1027C4006FEA12429A62704700ED00E010B5194BAF
:1027D4000246986A9C6A10F4805F14BF1720162082
:1027E40014F4006F9C6A18BF1820A40509D5986BCF
:1027F400986A000404D51AB19A6A22F400429A62D3
:1028040019200C4B9A6A12F4806F9A6A18BF1A2026
:10281400D2050CD49B6A13F4005F18BF1C20054A30
:10282400936A43F47F43936200230B7010BD1B2013
:10283400F5E700BF00ED00E010B51C4B0246986AB6
:102844009C6A10F0100F14BF1120102014F0080F10
:102854009C6A18BF1220A40709D5586B986A000611
:1028640004D51AB19A6A22F080029A6213200F4B9F
:102874009A6A12F0010F9A6A18BF142012F0200FFE
:102884009A6A18BF1520D40658BF9B6A074B9A6AE8
:10289400920642BF5A6A22F400525A629A6A42F07D
:1028A400FF029A6200230B7010BD00BF00ED00E030
:1028B400F0B5474B04465B6800258BB0C3F30803AF
:1028C40085F31188BFF36F8F02F07F40B0F17F4F23
:1028D40011D102F00C0008280DD010074CBF0C4693
:1028E40001250022033B8DF80720032B05D8DFE8E0
:1028F40003F02462665F2C46F3E700239DF807206B
:10290400CAB902AE04F1200732462068616808346F
:1029140003C2BC421646F7D1099A002D53D0C2F324
:10292400080121B96FEA52226FEA4222099218463D
:1029340002A904F0E9FE0BB0F0BD254BDA6A910759
:10294400DBD4DA6A002AD8DBDA6A5200D5D55A69B0
:10295400A16942F480725A61BFF34F8FBFF36F8F46
:102964005A6931F8021C22F480725A61BFF34F8F06
:10297400BFF36F8F4DF60272914209D09A6AD2B2B8
:1029840042B101200DF10701FFF756FF0346B5E7F9
:102994002368B3E79A6A12F47F4F05D001200DF142
:1029A4000701FFF713FFF1E79B6AB3F5803FA4D358
:1029B400FFF7DEFEEAE700200DF10701E4E700205F
:1029C4000DF10701EDE722F4FF7222F00102ADE7F9
:1029D40000ED00E0064B5A6942F010025A615A6950
:1029E40042F480625A615A6922F008025A617047BF
:1029F40000ED00E0EFF30880EFF3098101B57246C2
:102A0400FFF756FF01BD00BF0B4880F3088801F0B3
:102A1400E5FB202080F3118808484FF4006140183A
:102A240080F30988EFF314800221084380F31488AB
:102A3400BFF36F8F00F0C2F800700020C03E00208A
:102A4400002318460649D1F89020C2F30722934286
:102A540000DB7047C1F89830C1F8A0000133F6E7F5
:102A640000ED00E0084B9B6883420BD1EFF3058334
:102A740043B1064B5A6842F080525A605A6A22F4B3
:102A840000425A6203F0BCBCC41C002000ED00E00C
:102A940014498A684FF030001044EFF3098C80E841
:102AA400F01F202080F31288BFF36F8F0E4F4FF07A
:102AB40000664A698A603E60106F0C4C2060506F5B
:102AC4000023536780F3118802F1300090E8F01F6F
:102AD4008CF3098802F1000004B504F02AFEBDE875
:102AE40004407047C41C002004ED00E0081B0020D3
:102AF4001EF0040F0CBFEFF30880EFF30980816927
:102B040011F8021C0229FFD001B5724604F002FE3E
:102B140001BD00BF40B2002807DB01234109034A7D
:102B240000F01F00834042F82130704700E100E0CC
:102B340040B200280CDB01220649430900F01F00C3
:102B44008240203341F82320BFF34F8FBFF36F8FB0
:102B5400704700BF00E100E0054B420953F8222012
:102B6400012300F01F0003FA00F01040704700BF7B
:102B740000E100E040B2002801F10101ACBF00F126
:102B84006040064B4FEA4111C9B2ABBF00F561404A
:102B940000F00F0080F800131954704714ED00E0A2
:102BA400044B054A23F07F039360BFF34F8FBFF3B9
:102BB4006F8F70470000000000ED00E008B5FFF7DC
:102BC400EFFF0B4AD2F8883023F47003C2F8883040
:102BD400EFF3148323F0040383F31488BFF36F8F9C
:102BE400FFF76AFDFFF774FD00F046F802F0B6FF48
:102BF40000ED00E042F8203C009B0B4942F81C3CED
:102C0400019B21F0010142F8183C029B42F8081C88
:102C140042F8143C4FF0807342F8043C0023203AFD
:102C240002654367704700BF6D17000000B50D4B88
:102C340015469860026F0C4B0E461A60036E83F3C0
:102C44000B882C4686F309880020044B98472046BD
:102C5400002100220023024C204700004577000099
:102C64006D170000C41C0020081B00201022014B1B
:102C74001A61704700ED00E0002320210348C218C8
:102C84000133452B82F80013F9D1704700E100E0CD
:102C940008B5EFF30583064A103B02EBC30152F873
:102CA400330049688847BDE80840FFF751BD00BFBD
:102CB4004CA600001FB5094C094A234601210948C6
:102CC40000F0FAF800230393074B0121E41A01A84A
:102CD4000193029400F0FAF804B010BD000007203C
:102CE40000000020DCA900001001002010B50C7ABF
:102CF4000B6804F01F0223F01F031A43CB68640916
:102D040023F01F03054943EA440343F00103C1F8D8
:102D14009800C1F89C20C1F8A03010BD00ED00E07F
:102D240010B5074BD3F89030C3F30723013B984207
:102D340002D8FFF7DBFF10BD6FF01500FBE700BF03
:102D440000ED00E02DE9F04F0F46144606464FF023
:102D540000084D4D85B0B84580F29280D6F80490B5
:102D6400B9F1000F36D0B9F11F0F40F2878019F086
:102D74001F0F40F08380D6F800A01AF01F0F7DD1FA
:102D8400504604F019FD834609EB0A00013804F0AB
:102D940013FD834572D11BF1160F6FD05C456DDDB9
:102DA400C5F898B0D5F89C10C5F898B0D5F8A030FF
:102DB40021F01F0143F01F0AD6E900321A44994258
:102DC40002F1FF391ED1CA4508D131465FFA8BF0B2
:102DD40004F0FBFC08F101080C36BCE73146C5F8E9
:102DE40098B0D5F89C3022F01F0203F01F03134360
:102DF400C5F89C30E0B204F0E8FC10F1160F3DD0A9
:102E0400441CE7E7C5F898B0D5F8A020013B23F0AF
:102E14001F0302F01F021343CA453146E0B2C5F84E
:102E2400A030E8D004F0D1FC10F1160F26D0C5F87C
:102E340098B0D5F89C209DF808300AF1FF3A62F367
:102E440004038DF80830D5F8A0309DF808205B08FD
:102E540063F347128DF80820D6E900321344009337
:102E640023F01F035344A3EB0903013023F01F0392
:102E74006946C0B20393FFF753FFBEE76FF0150432
:102E8400204605B0BDE8F08F00ED00E00522044BBC
:102E9400C3F89420BFF34F8FBFF36F8F704700BF09
:102EA40000ED00E0BFF35F8F0022024BC3F89420D3
:102EB400704700BF00ED00E010B5034C2278FFF727
:102EC40041FF207010BD00BF993E00202DE9F74F4F
:102ED400294D8A4606464FF00008AB46274FD04599
:102EE4001BDAD6F80490B9F1000F3FD031680846D8
:102EF400019104F061FC0199044609EB01000138D9
:102F040004F05AFC84424FF014021D4B08D002FB1B
:102F140008F36FF015024BF8032003B0BDE8F08FFF
:102F240014F1160F2C60F8D01978A142F5DD02FBDC
:102F340008B0C7F89840C7F89840D7F89C4000F10B
:102F44000801007B64F304000871D7F8A0000C7931
:102F5400400860F347140C71D7F89C1021F01F014E
:102F64006960D7F8A01021F01F01296108F1010858
:102F740014350C36B3E700BF0C1B002000ED00E055
:102F8400993E0020F0B55249524CD1F89030256852
:102F9400C3F307239D4287B000F296800020FFF719
:102FA40081FF4D4BC1F8C030854216D14B4C01A86E
:102FB4002570FEF735FE00250646494FAE4213D173
:102FC400002023784249D1F89020C2F3072293428B
:102FD40074DBFFF75BFF002043E0616801EB001145
:102FE400FFF784FE0130DFE70199280101EB0513A7
:102FF400DA683A40B2F5800F42D007D8B2F5801FA4
:1030040015D0B2F5001F2ED00135D7E7B2F1006F0D
:1030140043D0B2F1805FF7D15A689B680958013BED
:1030240022F01F00034423F01F03012032E05A68FA
:103034009B680958013B22F01F0003440120844689
:1030440023F01F0340EA4C10CDE902218DF8100053
:1030540002A920780593FFF763FE00282ADA6FF0AF
:10306400150007B0F0BD5A689B680958013B22F06F
:103074001F0003444FF0020C012023F01F03E1E77B
:103084005A689B680958013B22F01F000344022040
:1030940023F01F034FF0000CD4E75A689B680958CB
:1030A400013B22F01F0003444FF0030C012023F0E6
:1030B4001F03C7E7237801332370A5E7C1F89830CD
:1030C400C1F8A00001337EE74FF0FF30C9E700BF2D
:1030D40000ED00E0E8A90000AAFF4400993E0020AA
:1030E4000000F0FF08B5024803F0E0FBFEE700BF74
:1030F400FFB4000008B5024B1B689847002008BDC8
:10310400201B002008B5054804F00DF9002383F3C3
:103114001188BFF36F8F0423184602DF04B5000043
:1031240000B50C2207F0FCF9024B1A5000205DF8A0
:1031340004FB00BF0C000000054B03EB8000D0F83B
:10314400003223F0E04343F04053C0F800327047AC
:1031540000258450052370B5144D154E2C78013488
:10316400B4FBF3F303EB8303E41A05F044F8114AC8
:10317400137823B156F82430C01A072814D94FF015
:103184005023D3F8141141B10021C3F81411D3F81A
:1031940014312C700CB9012313702C7805F02BF822
:1031A40046F82400012070BD0020FCE79B3E00206F
:1031B400241B00209A3E0020012208B50B4B0C4929
:1031C400C3F8002502230020C1F8D036FFF7B4FF6E
:1031D4001046FFF7B1FFC1F80427C1F80429C1F86C
:1031E400002BBDE8084000F099B800BF0010005063
:1031F4000040005007B54FF480620B4B0B49C3F8F5
:10320400B8254FF400620A48C3F83C250DF10702C3
:1032140005F02DF8002803DB9DF8070001F0D4F831
:1032240003B05DF804FB00BF00A002502CA00250C4
:1032340028A1025048B1054B054A1B68B3FBF2F3C1
:103244005843044B43F0010318477047D40000204F
:1032540040420F0060A90000002170B5104C114DD0
:10326400114E000714F8013B03F01F025B090FD055
:10327400012B0FD1334603EB8203D3F80022013133
:1032840022F0E04202430429C3F80022EAD170BDCF
:103294002B46F0E70023803253F82230FFDE00BFD4
:1032A40011B5000000258450002884502DE9F04118
:1032B400064601200D46FFF7CFFF4FF47F03D3F8F6
:1032C4003021D3F83431072A20D1023B032B02D812
:1032D400114AD35CD3B14FF050244FF001080027BA
:1032E4000520C4F81886C4F8147604F08BFF404611
:1032F400C4F8148604F086FFC4F81476C4F818766B
:1033040030462B46BDE8F041002118474FF05023CA
:103314000022C3F81426F3E70DB500000149024862
:1033240004F05DB814AA0000381B0020BFF34F8FCF
:103334000549064BCA6802F4E0621343CB60BFF34D
:103344004F8F00BFFDE700BF00ED00E00400FA0569
:1033540008B54FF0FF323F230348C0E9002301F0D2
:103364001FF8002008BD00BF541B0020084B70B597
:10337400C31A0D4607499B10044659434022064888
:1033840004F073FA2B4601462046BDE87040184706
:10339400701B0020B76DDBB688A50000402373B511
:1033A4000B4C0093041B0B460D460A49A4106143C1
:1033B4000646094A094804F083FA011E05DA304634
:1033C4002B4602B0BDE87040184702B070BD00BF84
:1033D400701B0020B76DDBB62D79000088A50000B6
:1033E4002DE9F0470022012107460520FFF7C2FB23
:1033F400124801F009F80446D0B901F039F825461D
:103404004FF01C0A4FF00C08DFF834903E6949462F
:103414000AFB056003F0E3FF031E0CDB012308FB3A
:1034240005661D44042DB367F0D12046BDE8F0873E
:103434006FF00404F9E71C46F7E700BF7535000098
:1034440020AA00001FB500220123CDE902236B4608
:10345400084ACDF800D0CDF804D004F05EFA002874
:1034640005DB4FF480420023684602F0DBFC05B024
:103474005DF804FB5779000010B5EFF311842023A5
:1034840083F31288BFF36F8F074A136823F0020196
:10349400DB07116002D4012004F00CFF84F31188CF
:1034A400BFF36F8F10BD00BF101C00200C22104B07
:1034B400014602FB0033002030B4D3E91C521867E4
:1034C400EFF31180202484F31288BFF36F8F9C6F75
:1034D40004F0C00444F002049C6780F31188BFF335
:1034E4006F8F1DB12B4630BC0248184730BC704763
:1034F400701B002088A5000010B4EFF31182202374
:1035040083F31288BFF36F8F1748016841F00204F8
:103514000460C80707D482F31188BFF36F8F0120BA
:1035240010BC04F0B8BE4FF05021D1F80C04D1F80F
:103534000C14C907EFD5EFF3118083F31288BFF39E
:103544006F8F0A498B6F03F0C00343F002038B674C
:1035540080F31188BFF36F8F82F31188BFF36F8FED
:10356400002010BCFFF7A2BF101C0020701B00201D
:10357400092813D8DFE800F00510121212121212F3
:103584000E0C074B986F10F0070007D1FFF78EBFA2
:103594000220FBE70320F9E70120F7E7704700BFAB
:1035A400701B00202DE9F041012207463649D1E87D
:1035B400EF3FC1E8E02F0028F9D133B9334934484B
:1035C4004B60CB608A6003F01DFF7B1E012B2BD860
:1035D400012F07D14FF05023D3F81C3403F0030319
:1035E400022B21D006F05FFE0546F8B9294B1B7863
:1035F400E3B14FF0502302220646C3F808234FF0EC
:103604005024DFF89480D4F81824D4F81834D20362
:1036140015D503F00303022B01D0012F0FD16DB395
:1036240086F31188BFF36F8FBDE8F081EFF3118645
:10363400202383F31288BFF36F8F0125DFE7C5B121
:10364400304604F09DF8D4F81835DBB2012BDAD1FA
:10365400D4F80421002AD6D00022C4F80421D4F8D6
:1036640004210222C4F818252022C8F88021A3606E
:10367400C9E70021212006F086FEE4E74FF050233D
:103684000222C3F80423CFE76C1B00205C1B00203C
:103694008C1B0020BE3E002000E100E0024B0B60CA
:1036A40001231360704700BF141C002000487047BA
:1036B4005CAA000010B501220648114606F0E7FD99
:1036C40005F037F9044C206005F030F96060002003
:1036D40010BD00BF1C1C0020141C002070B50C463B
:1036E400154605F023F929460646204604F0A2F9BA
:1036F40008B3B4FBF6F306FB1343E3B9B5FBF6F3E7
:1037040006FB1353BBB9AE4201D9002070BD4FF084
:10371400FF324FF0FF33094802F084FB05F006F94D
:103724000646204601F0D6F9AD1B3444F9D10348CE
:1037340002F044FBE9E76FF01500E7E71C1C0020EA
:10374400F8B50E461946304617461C4604F072F981
:1037540008B346EA040515F003051CD1A4B14FF0E3
:10376400FF324FF0FF330D4802F05CFB24F00304FA
:10377400A54206EB050009D1094AD2F80034DB075B
:10378400FBD5064802F01AFB0020F8BD795901F078
:10379400BBF90435ECE76FF01500F6E71C1C0020BC
:1037A40000900350F0B545681646A8682A7C01F0DD
:1037B4001F0487B044EA4214002868D0B6F5001FFD
:1037C40004D1214605F0ADF8002051E00020B6F503
:1037D400800F01AA0190506037D1B3F1007F14BF6C
:1037E400052304238DF804300023CDE90423039337
:1037F400EB680DF1030723FA01F111F0010139D14E
:10380400B6F1A07F36D104F01F03620903F18003EF
:1038140026D0012A3ED1214A52F82330DB0729D48D
:103824003A462146A86805F00FF816301AD00297D8
:103834002146A86803AA04F0D3FE002818DB01225D
:103844002146A86805F01BF8BEE7B3F1C06F05D0A8
:10385400B3F1007F14BF01230223C3E70323C1E7AD
:103864000F4AD9E73946A86801F028F80028DEDABB
:1038740007B0F0BD3A462146A86804F0E5FF0028E9
:10388400D6D19DF80310A86801F00EF8D0E76FF0C8
:103894008500EDE751F82330FFDE00BF0028845097
:1038A400002584504209034670B502D0012A17D07E
:1038B40070BD0D4E326951680029F9D0012503F01D
:1038C4001F030C689D400029F2D08A682A4002D068
:1038D40030464B6898472CB1236821461C46F2E7D2
:1038E400024EE7E72346F8E7C0A50000A4A50000C0
:1038F40038B54568A86890B104F0B9FF014670B9BD
:10390400A86800F09FFF044658B902460649A86813
:1039140004F097FF224605210D20FFF72BF9002024
:1039240038BD6FF00400FBE7A93800002DE9F0432F
:1039340040F206364768D00648BF4FF0030C3B7C84
:1039440002EA060658BFC2F3401C87B001F01F0507
:10395400B6F5837F144645EA43158DF803C044D079
:103964000DD8062E16D005D8A6B1022E3FD06FF082
:10397400150037E0B6F5807FF9D101260AE040F260
:103984000222964235D0B6F5407F34D0B6F5007F9A
:10399400EDD102260123220303FA01F12DD57B6820
:1039A4009960B86880BB05F01F036D092AD0012D0A
:1039B40073D13C4A02EB830284F48033D2F80012C0
:1039C400C3F30043C4F3404444EA430421F4706164
:1039D40044EA8C0421F00F0144EA06230B43C2F8A5
:1039E4000032002007B0BDE8F0830726D2E70426A2
:1039F400D0E70526CEE70326CCE7630344BF7B6804
:103A0400D960CEE7284AD5E729460DF1020204F031
:103A14001BFF14F4403F80460CD12946B86804F0DB
:103A24002CFFB8F1000FDCD19DF80210B86800F04B
:103A34003BFFD6E74FF0000901ABCDE90199CDE991
:103A44000439CDF80C902946B86803AA04F0C8FDDF
:103A54004845C6DB14F4003314D09DF8033084F4D5
:103A64008034C4F300448DF80E308DF80C608DF86A
:103A74000D404B462946B86803AA04F069FE0028A5
:103A8400CFDAAEE7CDE904330DF1030303932946FE
:103A9400B86803AA04F0A4FDF1E7803350F823309A
:103AA400FFDE00BF0028845000258450036803F023
:103AB4001F025B09026004D0012B034818BF0020D9
:103AC40070470248704700BF002884500025845086
:103AD4002DE9F04F1546824640F2FF19DFF8B0B1E8
:103AE40085B000EB8108D04503D1002005B0BDE8C6
:103AF400F08FDAF80030C3F3C3210829C3F30804B4
:103B040000F2C080634A4C45515C4FEA136311D004
:103B1400222B1DD94E2B40F0B880C5F81445012640
:103B240003A80394FFF7C2FF039B06FA03F3836021
:103B3400374654E0222B09D94E2B40F0A6804FF093
:103B4400FF33C5F814350AF1040ACCE74FF0FF340B
:103B5400222B00F29A80DFE803F012171E36212789
:103B640036989898983963989898989898989898C7
:103B74006B76797C9898987F86898C8F9200C5F8AB
:103B84000C45631CCBD1DEE7C5F81445631CDAD0C1
:103B94000026002723E0C5F80845F2E7601CC5F8B5
:103BA4000845D0D0002604E0621CC5F80C45CAD0F4
:103BB4000126012703A80394FFF778FF039B07FA64
:103BC40003F3C3600BE0C5F81045DFE7C5F808450B
:103BD4000029DBD1671CB6D0002606213746DAF867
:103BE4000030039403F40040002803A81CBF0126FE
:103BF40000270193FFF75AFF039C019B00EB84000D
:103C0400D0F80042C3F3412C0B0243EA8C033B433C
:103C140004EA0B04234343EA4603C0F8003292E764
:103C2400C5F80C450029D5D0661C8CD000267FE74A
:103C3400C5F86045601CDAF8003084D0C3F3004353
:103C4400002BB5D06BE7C5F86445F3E7C5F86845C4
:103C5400F0E7C5F86C45EDE7C5F82445621C3FF470
:103C640072AF012695E7C5F828458AE7C5F83045BF
:103C7400F4E7C5F83445F1E7C5F83845EEE7C5F88B
:103C84003C457EE76FF0150030E76FF085002DE7C7
:103C9400F0F0FCFF70B5000038B570B14FF400458A
:103CA4000021064C0023E0FB0541054A2046FCF7B1
:103CB4004FFABDE8384006F066BB38BD3F420F00FE
:103CC40040420F002DE9F04104460D46476806F0D6
:103CD400EAFA88B14FF02008EFF31186314688F3F1
:103CE4001288BFF36F8F606804F05DF950BB86F3F0
:103CF4001188BFF36F8FEFE71F4B1B78002BE9D0C0
:103D04004FF020086426606804F04DF970B9012072
:103D140004F078FA013EF6D10021212006F033FBAD
:103D2400F0E786F31188BFF36F8FF5E7EFF31186A1
:103D3400314688F31288BFF36F8F606804F033F95B
:103D44000028EED0FB6900201D706368FA691B68C7
:103D5400C3F844250122C3F84825C3F82001D3F849
:103D64002041C3F85801D3F858019A6081F31188AF
:103D7400BFF36F8FBDE8F081BE3E00200123834076
:103D840070B5DC430B4AD2E8EF1F01EA0405C2E830
:103D9400E65F002EF7D14FF4803282400648C0F827
:103DA4000823BFF35F8FBFF36F8F0B4214BF012053
:103DB400002070BD781C00200050015070B40E49E2
:103DC40022F07F46D1E90034D01AC31844F100042C
:103DD400C1E90034A6F50013B3F5400F09D2074B2F
:103DE4001B681A0A1B069C19054B42F10005C3E91E
:103DF400004570BC02F0E4BC200100207C1C0020C3
:103E040028010020D9B101230D4A8340D2E8EFCF25
:103E14004CEA030CC2E8E1CF0029F7D14FF4803318
:103E2400084A8340C2F80433074BD3E8AF3FC3408A
:103E3400DB0742BF4FF40012044BC3F80021704764
:103E4400781C002000500150741C002000E100E0A8
:103E54000D4B1868010A0006BFF35F8F0B4BD3F8B4
:103E64000435181841F10001B3F5801F0AD2084B3C
:103E7400D3E90023904271EB030303D210F1807065
:103E840041F10001704700BF7C1C0020005001502C
:103E9400280100202DE9F04F85B016461F46044640
:103EA4009DF840A0FFF76AFF0190FFF7D1FFB042F1
:103EB40071EB070352D23B4B301A67EB0101984276
:103EC40071F100014DD2384B03EB0413D3E9022303
:103ED4009F4208BF964258D04FF48038334908FABD
:103EE40004F8204626F07F4BC1F8488304F077F9A4
:103EF4004FF00309584604F15005AD00ADB205F189
:103F0400502504F5A87305F580350293029A20F034
:103F14007F4341F82230C1F84483D1F80435244A60
:103F2400C01A033820F07F4090422ED9286868B127
:103F3400D1F80435A3EB0B0020F07F40B0F5000F5F
:103F4400039322D9204604F04AF9039BBAF1000FE7
:103F540007D109EB030009F10109D7E7BAF1000F12
:103F640009D06FF0150520460199FFF74BFF28464D
:103F740005B0BDE8F08F01230E4AA340D2E8EF0F4D
:103F84001843C2E8E10F0029F8D107490E9823012C
:103F9400C8500F9B01EB04120025C2E9026753606D
:103FA400E1E700BF01008000100100200050015033
:103FB400FDFF7F00741C00207FB500254FF0FF300B
:103FC4004FF0FF31194C1A4B0226C4F80833C4F8D9
:103FD4004833184BC4F80855C3E902014FF4803341
:103FE4004FF40012C4F80433134B0121C4F80463E2
:103FF4001520C3F880212A46FEF7BCFD1520FEF7E4
:1040040089FD01230D4AA360236013600C4B0D4A04
:10401400009328460023CDE90155FFF73BFF3046C6
:10402400FFF7C0FA284604B070BD00BF005001502D
:1040340003000F001001002000E100E0781C0020C4
:10404400C13D0000FFFF7F002DE9F7432E4BD3F85D
:10405400042390070BD5D3F8042142B10022C3F8FE
:1040640004212A4AD3F80431136801331360264A21
:10407400D2F80433D90326D5254BD3E8EF1F21F01A
:104084000100C3E8E40F002CF7D1CB0702D4D2F827
:104094004031C3B100251C4CC4F84051D4F8403120
:1040A400FFF7D6FEEFF31182202383F31288BFF3C8
:1040B4006F8F184BD3E90267B042B94106D282F33D
:1040C4001188BFF36F8F03B0BDE8F0834FF0FF3862
:1040D400D3E900104FF0FF391D60C3E902894FF4A2
:1040E4008033C4F84833C4F84051D4F8403182F3E3
:1040F4001188BFF36F8F0029E5D0009032463B460C
:1041040028468847DFE700BF005001507C1C002090
:10411400741C00201001002030B5431C124C85B0E3
:1041240005D08442A8BF0446012CB8BF0124FFF780
:104134008FFE0E4B0C4DD3E90013401AB0F5000F5F
:104144000FD22218AA4228BF2A4600205218084932
:10415400CDE90100009143F10003FFF79BFE05B098
:1041640030BD2A46F1E700BFFFFF7F002001002099
:10417400C13D000008B5FFF76BFE024B1B68C01A77
:1041840008BD00BF20010020012310B5074C1520F5
:104194006360FEF7CDFC4FF40012054BC4F80833FE
:1041A400C4F84833034BC3F8802110BD00500150BC
:1041B40003000F0000E100E04FF47F03D3F8302147
:1041C400D3F83431072A05D1023B032B02D8024A23
:1041D400D05C704700207047AEB5000008B5FFF70B
:1041E400EBFF58B1644BD3F8202A3AB90D21C3F838
:1041F400201A0121C3F81C19C3F81C290022D3007A
:1042040003F57F03D3F80013013107D0D3F800136B
:104214000132D3F80433202A0B60F0D1FFF7CCFF2E
:10422400002840F0A080FFF7C7FF40B1534B544A29
:10423400C3F830254FF050230122C3F858254FF41A
:104244007F03D3F83021D3F83431072A09D1023B54
:10425400032B06D84B4AD35C1BB100224A4BC3F84C
:104264004C25FFF7A9FF50B14FF05023D3F8002499
:10427400D10742BF0022C3F81421C3F818214FF418
:104284007F03D3F83021D3F83431072A09D14FF012
:104294005023D3F80024D20744BF6FF00102C3F8BF
:1042A4000024FFF789FF18B16522334BC3F80C27AC
:1042B4004FF47F03D3F83021D3F83431072A16D1D1
:1042C400314BD3F82034002B11DA4FF05023032262
:1042D400C3F8182501229A60D3F80421002AFBD0E0
:1042E4000022C3F804210122DA60C3F818254FF430
:1042F4007F03D3F83021D3F83431072A23D1023B8A
:10430400032B02D8214AD35CEBB17E221A4B1B4902
:10431400C3F80C27C3F83C297F231D4AC2F818317F
:104324000023C1F8043EC1F8083E01F54821C1F854
:104334001031C2F82431C2F82C3102F5FF1202F513
:104344008052C2F8A032134AD2F88C3043F440634E
:10435400C2F88C30104A114B1168C3F84415D26965
:10436400C3F84C2508BD2922034BC3F80C270322AC
:10437400C3F83C2757E700BF0040005000900350AB
:104384004400EFBEAAB5000000200350A6B500000B
:104394000020005000ED00E00080FF0000600050AD
:1043A400014B1860704700BF801C002010B5054BFE
:1043B4001446186803F028FF0028A4BF20700020CA
:1043C40010BD00BF801C00200123024A8340C2F8B4
:1043D4000435704700700150014B00201B681847DA
:1043E400841C0020014B1B68184700BF841C00205C
:1043F400014B09201B681847841C0020014B08202E
:104404001B681847841C002010B5144C237913BB77
:1044140001232371124B0028206018BF184600F0B6
:1044240037F8D0B923680F48002B08BF184600F0AE
:10443400B9F890B923680C48002B08BF184600F05F
:10444400F9F850B923680948002B08BF1846BDE89D
:10445400104000F063B86FF0770010BD841C00209A
:10446400DD430000F5430000E9430000014400007F
:1044740008B5064B1B6843B10520FEF76DFB20B958
:10448400BDE808400520FEF745BB08BD841C00209C
:10449400074B0246187938B91A6001221A714FF095
:1044A4005023C3F8142570476FF07700704700BF9E
:1044B4008C1C00204FF050230022C3F80021D3F8B5
:1044C4000021012208491A60096811B1C3F80423C4
:1044D4007047D3F80021002AFBD00022C3F8002142
:1044E400D3F80031704700BF8C1C00204FF05023DC
:1044F400D3F80423D2070DD5D3F8002152B10022FA
:10450400C3F80021D3F800210122C3F80823024B89
:104514001B681847704700BF8C1C0020054B0246DF
:10452400187918B91A6001221A7170476FF0770070
:10453400704700BF941C00204FF050230022C3F8A2
:104544002021D3F8202101229A61094A126822B15C
:104554004FF48072C3F804237047D3F82021002A53
:10456400FBD00022C3F82021D3F82031704700BFCC
:10457400941C00204FF05023D3F80423D2050ED509
:10458400D3F820215AB10022C3F82021D3F82021E6
:104594004FF48072C3F80823014B1B681847704717
:1045A400941C0020074B0246187938B91A6001227E
:1045B4001A714FF05023C3F8802570476FF07700CD
:1045C400704700BF9C1C00204FF050230022C3F80A
:1045D4002421D3F8242101221A62094A126822B143
:1045E4004FF40072C3F804237047D3F82421002A3F
:1045F400FBD00022C3F82421D3F82431704700BF34
:104604009C1C00204FF05023D3F8042392050ED5B0
:10461400D3F824215AB10022C3F82421D3F8242149
:104624004FF40072C3F80823014B1B681847704706
:104634009C1C0020074B0246187938B91A600122E5
:104644001A714FF05023C3F8182570476FF07700A4
:10465400704700BFA41C00204FF0502310B5D3F8BE
:1046640018141E4C11F4803FD3F818241AD002F009
:104674000302022A04D0012A01D003F08BFE012296
:104684004FF05023C3F818250022C3F80421D3F8AF
:10469400042101229A6022688AB9D3F80421002AED
:1046A400FBD014E0D3F81424D207E8D5D3F81C24A3
:1046B40002F00302013A012ADFD822681AB1022269
:1046C400C3F8042310BDD3F80421002AFBD0002230
:1046D400C3F80421D3F80431F4E700BFA41C00207C
:1046E400F8B54FF0502301250026D3F80443184FA2
:1046F40004F0820404B9F8BDB4FA84F0C0F11F00D8
:10470400830003F580739BB203F15023196805FA03
:1047140000F224EA02040029ECD01E601B684FF06A
:1047240050230128C3F808230ED1D3F81824D3F852
:10473400182402F00302012A06D10221C3F8181535
:10474400C3F804139A60D5E73B68C0B29847D1E731
:10475400A41C0020036803F01F025B09026004D05C
:10476400012B034818BF002070470248704700BF60
:104774000028845000258450034A4309D35C00F088
:104784001F001844C0B27047B2B50000034611F0D0
:10479400010010B5CCB20BD1A207C4F340000DD573
:1047A400074A106A58601062003818BF012005E0FB
:1047B40004490A6A1A600A62002AEDD010BD00BFDB
:1047C4000028845000258450F7B504460846FFF7B6
:1047D400D3FF06B204EB4606B38A0D46DB072BD59E
:1047E400204603F0DAFE2946204603F046FE58B17F
:1047F400204603F058FE0022276800B207EB80032E
:10480400C3F81025C3F810252946204603F074FE8A
:10481400002101A8B1820195FFF79CFF019B00EBE9
:104824008300D0F80022064B134043F00203C0F883
:104834000032084603B0F0BD6FF01500FAE700BF80
:10484400F0F0FCFF70B590F88C40054690F88D6050
:1048540024BB21466022143005F020FE2146114B72
:10486400286853F836608E420ED10024C0F87C418B
:10487400D0F87C3140F30730FEF74CF90123204691
:1048840085F88C30AB6770BDCBB29B0003F58072AA
:104894007C2B04BF845083580131E4E76FF0770028
:1048A400F1E700BF34AB000090F88D00024B03EB3E
:1048B400800003F0C3BC00BFD800002010B5064B35
:1048C40090F88D000C4603EB800003F09DFC00285B
:1048D400A4BF2070002010BDD80000202DE9F04FA7
:1048E400814659F804BB90F88D40DBF804136B4BF8
:1048F400C9B2804653F8342058468BB041F0004189
:1049040003F024FE051E36DA0023CDE90833634B99
:1049140008A803EBC4035B6819460193FFF736FF4D
:10492400042303EBC40303935D4B0DF1200A0293AC
:104934000023029A009312F8013B58490292039A09
:1049440002EBD3028A5C03F0070322FA03F3DA07CB
:1049540019D4009B0AF1040A9BB14FF000410022D4
:10496400584603F0F3FD019908A8FFF70FFF00284C
:10497400DAD125F000450124002D78D10BB0BDE833
:10498400F08F0123D5E7009B464A13440493DAF8D9
:1049940000100029DDD091FAA1F1B1FA81F1049B54
:1049A4001C7841EA44142046FFF7E6FE08EB400079
:1049B400878AC808BB08059301231AF8002001F070
:1049C400070103FA01F122EA01020AF8002007A80C
:1049D4000794FFF7BFFE079A059B803250F8222008
:1049E400C7F382065B073746C2F3014223D5484624
:1049F400D6B221463A4603F060FD07A80794FFF7B4
:104A0400A9FE079B803350F82330C3F301439E4231
:104A140007D10021204603F021FD3146204603F052
:104A24001DFD07A80794FFF795FE0122079B02FAD4
:104A340003F30362ABE7022A0DD10321204603F0FE
:104A44000DFD06F00503012BEBD13A4621464846FD
:104A540003F033FDE5E702212046059203F0FEFC56
:104A6400032EF2D0059A032ADBD1022EECE795FA45
:104A7400A5F3B3FA83F304FA03F225EA020503F576
:104A8400A2725BF8222008EB43034846B3F87C107B
:104A9400C2F3014203F011FD6EE700BF34AB000026
:104AA400C2B50000C2B500000022034BC3F8842540
:104AB400C3F80425704700BF00900350044AD2F89D
:104AC4000834DB07FBD50160BFF35F8F704700BF7D
:104AD4000090035008B5C0F30B0383B90222094BBD
:104AE400C3F88425C3F804254FF0FF320260D3F8DD
:104AF4000024D207FBD5FFF7D7FF002008BD6FF0D5
:104B04000C00FBE700900350012208B5054BC3F8E5
:104B14008425C3F80425FFF7D1FFBDE80840FFF75B
:104B2400C3BF00BF00900350044B1B6858404308A8
:104B34005B4240421843C017704700BFAC1C0020C2
:104B44008842F0B504D00025084F0438AA4200D1A9
:104B5400F0BD3E6850F8044F5E4024EA060451F864
:104B6400256001351E4034430460EFE7AC1C00208F
:104B74002DE9F04F8DB01D46189B8346B3F12A3FB3
:104B84008A46179F1A9E059240F08D8039461698E2
:104B940003F02DFF012838BF0120470900F01F044E
:104BA4004FF001097B01502B34BF4B4603230A937A
:104BB40009FA03F30B930A9B059805FA03F306EB32
:104BC4008303069303EB8503079304F0ECF84FEAA1
:104BD4008508424600210890304605F05FFC079B9B
:104BE400C6F800900393089B3146CDE90153059B19
:104BF4003046199A009306EB08092B4604F0E4F8B2
:104C040051464246484605F022FC02234946099390
:104C14000B9B099A934248D142463146584605F0C7
:104C240016FC4FF00009CA46079B5A460393089B9B
:104C34005946CDE90153059B584600932B4604F091
:104C4400C3F8002C47D11F24013F169B0AF1010A27
:104C540053F82730E34003F0010343EA49090A9B70
:104C6400534503D0002CDFD1002FDDD1189BB3F1C5
:104C74002A3F32D1424609FB0861069805F0E7FB5A
:104C8400079B59460393089B5846CDE90153059B5E
:104C9400069A00932B4604F097F8002CC1D1BFB9B3
:104CA4000DB0BDE8F08F00247AE7079B01EB080AFA
:104CB4000393089B4A46CDE90153059B5046009354
:104CC4002B4604F081F8099B5146013309939FE771
:104CD400A146A246A8E7013CB7E731464FF0000AD7
:104CE4000A4B2A4618681B68584080EA090080EA83
:104CF4000A00FFF719FFC3430698FFF721FF099B3A
:104D04000AF1010A53454144EAD1B9E7AC1C002039
:104D1400054B01311B680132434022EA030208407B
:104D24000243501E00B27047AC1C00202DE9F04F26
:104D3400834699B00F46184600211646039304F0A3
:104D4400B4FA002800F0898100240125774B30460D
:104D54001493039915ABCDE90B45CDE90D45CDE988
:104D64000F45CDE91145139304F028FAA04228DA3F
:104D7400BBF1000F05D1E7B90024204619B0BDE806
:104D8400F08F2146584604F0A1F904460028F2D0D9
:104D94000BA804F0E8F80DA804F0E5F80FA804F057
:104DA400E2F811A804F0DFF80C2115A800F014FBB8
:104DB400E3E73146384604F054F904460028E7D1C5
:104DC400DAE731460BA804F04CF904460028DFD199
:104DD40003990DA804F045F904460028D8D1F188B8
:104DE4000FA80231ADF83850ADF8305004F0C9F8CE
:104DF40004460028CCD101460FA804F067F9044604
:104E04000028C5D1F18811A8023104F0BAF804468B
:104E14000028BDD10DA804F085F900F01F001F285B
:104E240073D0C0F11F0319460BA8019304F0A0F935
:104E340004460028ACD101990DA804F099F9044660
:104E44000028A5D1BDF83250BDF83A800DA8A5EBD5
:104E5400080A4FEA4A19494604F08AF90446002828
:104E640096D14FEA8A0A0DA90BA804F0D6F90028B6
:104E74004DDA49460DA804F098F90446002887D174
:104E840008F1FF3305939B0005F1FF3A069305F102
:104E9400804508F18043023B013D9B00A5EB0805DA
:104EA4000893AB000293059B9A4541D8BBF1000FD0
:104EB4000DD058460FA904F0D4F8002840F0C9805A
:104EC400039AB388928813FB02F3ABF80430002FE3
:104ED4003FF45EAF01990BA804F067F9002840F095
:104EE400B880B3880BA93846ADF8303004F0B9F86F
:104EF4000146002840F0AF80384604F0D6F9002877
:104F04007FF446AF0123BB8042E701949AE70F9AEE
:104F14000BA952F80A300846013342F80A300DAAA8
:104F240004F0A8FA044600289DD031E701000300EC
:104F34000D9B069A04931344DDF82C900793049B6D
:104F44004FEA8A089A5859F82A10A8F104030F9DC9
:104F54000993029B91421D4476D2A8F104000023D8
:104F640059F80000FBF7F4F8002914BF4FF0FF33A1
:104F74000346BAF1010F2B600EBF002309EB0803AF
:104F840053F8083C1593A8F1040359F80330169319
:104F940059F80830DDF8108017932B6801332B6023
:104FA400089B98442B680021013B2B6011A804F056
:104FB4008DF800284DD1059B002B48D0D8F800204F
:104FC400119B11A91A60079A084612685A602A6848
:104FD40004F054FA00283CD113A911A804F01DF9D7
:104FE4000028DFDC2A680DA911A804F047FA80BB69
:104FF400029B11A84FEAC308414604F0B9F840BB2C
:105004000BA9084611AA04F035FA014618BB0BA8EF
:1050140004F04BF9002812DA0DA911A804F021F8C4
:10502400B8B9414611A804F0A3F890B90BA90846F1
:1050340011AA04F01CFA60B92B68013B2B60029B97
:105044000AF1FF3A043B2DE74FF0FF3391E7059A4D
:10505400B6E704469CE60C469AE66FF00B048CE631
:10506400F0B5114C002B14BF9C468C4624680023D9
:105074004440E443059F03F1040E774502D2BB424A
:1050840009D3F0BDD5585CF803600540264035438C
:10509400CD507346EFE7D55C1CF80360054026400D
:1050A4003543CD540133EAE7AC1C002009280248FB
:1050B40018BF0020704700BFC4B5000001680E4A45
:1050C4000346914215D1C169A2F11022A2F1EF1257
:1050D40091420ED18268012A0BD8C26812B10169CB
:1050E4008A4206D0586928B19B691B1A5842584114
:1050F40070470120704700BF55AA00FF70B50D4BE3
:105104009E68A6B13046FFF7D9FF044678B9F36824
:105114006BB935690DB9204670BD2846FFF7CEFF3F
:1051240028B9EB68B34202D12E462D69F2E7012477
:10513400F1E700BFB01C00202DE9F8433F4F3C6865
:10514400D4B1BC68C4B100284AD0002948D001FBBE
:1051540000F5B5FBF0F0884242D1281D40D8A907DC
:105164000DD025F003060436FC6803E06368B342FF
:1051740038D2A469002CF9D12046BDE8F8832E4624
:10518400F2E7FB6041E006F120016318203A5A601F
:105194000022C3E902242A4822691A61605029497D
:1051A400D96102B1D36062695A61A1699961AAB1F6
:1051B40093619A6902B153614FF00109236100239D
:1051C400C4E90169C4E905333B69DB072ED5FFF760
:1051D40095FF58B31C4B48461B6826E0FB60E8E784
:1051E4000024C9E7A3681BB1174B01201B6898472B
:1051F400626804F12008921B232AC4D80123A36007
:10520400D4E90523002ABCD09361A3690BB1626978
:105214005A610023C4E905333B69DA0706D5FFF771
:105224006DFF18B10120084B1B6898472A460021DE
:105234004046444605F032F99EE700BFB01C00200A
:1052440055AA00FF669911EEE400002070B50546EA
:10525400002800F08880444E3368002B00F08380DF
:10526400B268002A7FD0834203D8726813449842FC
:1052740003D33E4B01201B689847A5F12004204628
:10528400FFF71CFF18B1394B01201B68984755F8EC
:10529400183C012B03D0354B01201B689847002391
:1052A40045F8183C55F8143C3BB39A682ABB55F8AA
:1052B4001C2C02F120015A680A445A6055E905324F
:1052C4001A6155F8145C2B6903B1DD6020220021BA
:1052D400204605F0E3F8286910B18368002B2ED02E
:1052E40033699B073FD5FFF709FF00283BD0BDE892
:1052F40070401E4B01201B68184755F8100C0028FD
:105304002AD0836843BB42686368134420336360D4
:1053140003692361D4E905239AB9CBB9436963616D
:105324008269A261B3B19C61A36903B15C61236921
:1053340003B1DC602022002105F0B0F8D0E72C4650
:10534400E1E79361A369002BE8D062695A61E5E75C
:10535400F360F7E7F460E7E7F36845F8083C03B166
:105364005C61F460BCE770BDB01C0020E400002068
:1053740038B50C46142200210546134805F08EF872
:105384001249134800F040F8232C1CD915F00303EC
:105394001FBF043CE418C3F10403ED1822460021A6
:1053A400284605F07BF8084B0A49C3E90054203C21
:1053B4009D606C609A6811609A68A1F11021A1F156
:1053C400EF11D161DA6038BDB01C002051520000E9
:1053D4003D51000055AA00FF10B50A46044619B114
:1053E400024B00211B68984710BD00BFE00000205D
:1053F400014B1B68184700BFEC000020014B1B68E1
:10540400184700BFE8000020024B1860024B002040
:1054140019607047EC000020E8000020F8B500F1A6
:1054240008064768044630460D4603F07FFE87426F
:105434004BD16368B3F5806F47D80021304603F041
:1054440034FF002841DD0021304603F05BFEE0B369
:1054540045B9294604F1100003F027FF002834DD84
:105464000020F8BD04F120050021284603F01DFFAB
:1054740000282ADD0021284603F044FE28B304F165
:1054840028050021284603F010FF00281DDD002117
:10549400284603F037FEC0B1002104F1100003F0E8
:1054A40004FF002811DD002104F1300003F0FDFEAB
:1054B40000280ADD002104F1380003F0F6FE00287C
:1054C40003DD002104F14000C6E70148C9E700BF3D
:1054D40080BFFFFF012970B505460E46144601D969
:1054E400074870BD03D00020C5E91C64F9E7002A11
:1054F400F9D01046FFF7DAFD0028F4D1F0E700BF39
:1055040000BFFFFF70B500210446FFF787FF054683
:1055140010B10E4D284670BD04F10806304603F064
:1055240001FE7F28F5D910342946204603F0EAFD10
:105534000028EED0204603F0F5FD0128E9D93146D4
:10554400204603F06AFE0028E4DBE2E700BEFFFF2A
:10555400F0B50C4685B0002105461646FFF75EFF00
:10556400002839D102A803F0F9FC21466A6802A890
:1055740003F0E2FD044618B102A803F0F4FC0CE0C9
:1055840005F10804214602A803F047FE002807DBC2
:1055940002A803F0E8FC6FF00304A4F5854418E0C6
:1055A40005F1480302A96F680846009305F110024B
:1055B400234604F0B3F804460028DDD13A463146C8
:1055C40002A803F0CFFD044602A803F0CCFC002C93
:1055D400E3D1204605B0F0BD004CFAE780BFFFFFE1
:1055E40003460846C1B9C3E910110D4A0D49DFF855
:1055F40038C0C3E912120D4A0D49C3E914C20D4A59
:10560400C3E916120C4A1A6602F17452A2F5230277
:10561400A2F692425A6670476FF07300704700BF5B
:1056240085AE67BB67E6096A72F36E3C3AF54FA52F
:105634007F520E518C68059BABD9831F2DE9F04F27
:105644000446CFB0039100F1480346AD00F168066B
:105654002A4618685968083303C2B3421546F7D17D
:10566400DDE94883DDE94B96DDE946154FF0000C92
:1056740001933E4BDDF834B14A9804AA0293BCF17D
:105684000F0F5BD8039B53F82C301BBA4FEAF02E54
:1056940086EA0907DDF808A08EEAB01E07408EEA04
:1056A400706E774077445AF804EB936077443B4438
:1056B40045EA010E4FEA7137CDF808A087EAB10731
:1056C4000EEA080E05EA010A4EEA0A0E87EAB15705
:1056D40077440CF1010CDDF804E05B44BCF1400FAD
:1056E4009E44B3463B4402F10402CDF804801ED12B
:1056F400CDE94C96CDE94AE0CDE94858CDE94631AB
:10570400CDE9043745A904F14403643453F8042F64
:1057140051F8040FA34202441A60F7D104A84FF4CD
:105724009471FFF759FE00204FB0BDE8F08FA846F2
:105734004E460D46814619467046A0E7136852F856
:1057440034AC4FEAF34E8EEA734E52F8387C8EEA4C
:10575400932E52F8143C3B444FEABA4787EAFA17AF
:10576400734487EADA073B4490E700BF44AB000088
:10577400F0B585B06E4681680546103921F00704FE
:1057840001F017FF32460A4B03F1100C3746186834
:105794005968083303C763453E46F7D110232146B1
:1057A400284601F0D5FE003818BF012005B0F0BD31
:1057B40082AC000030B50D46816887B0102302AA80
:1057C4001039044601F0AFFE002802DA012007B0C8
:1057D40030BD1022204602A904F0E2F800283AD194
:1057E40010221E4902A804F068FE00280CBF012301
:1057F40002232B70204604F0BFF8012301460DF16B
:105804000702204601F08FFE0028DFDB9DF80730F9
:10581400204603F00F021B096A702B7101220DF15F
:10582400070104F0BDF810B96B78042B03D90123E8
:105834006B7000232B71A2682046183A22F00702ED
:10584400083AA91C04F0BFF80028BFD12046E91C7F
:1058540004F011F9BBE70323CBE700BF82AC0000DF
:10586400F0B5394F85B046000546694657F826001D
:1058740004F007F9044610B1FF2005B0F0BD01366D
:1058840057F8260002A904F0FCF801283ED12A4664
:1058940049212E4801F02CFE2D4B8DF80C4002932B
:1058A40000229DF800609DF808702A4C314620784B
:1058B40004F068F888B33946607804F063F860B39C
:1058C400A378042B03D09DF80310994225D1E378E3
:1058D400042B03D09DF80B1099421ED12379042B7D
:1058E40003D09DF80210994217D16379042B10D18B
:1058F400A279022A1DD1184B18482A46492101F0E1
:10590400F7FDA079831E022BB7D9B5E70028C7D0CD
:10591400B2E79DF80A109942EAD00132042A04F150
:105924000704C3D10E482A46492101F0E1FD0120B4
:10593400A3E7032A05D00B4B0B49042A08BF0B46E7
:10594400DAE70A4BD8E700BF44AC0000EAB5000030
:10595400030103037FB60000CCB5000035B6000098
:1059640059B60000D1B50000E3B50000C7B500008A
:1059740070B516461D465A1C036804461344C26893
:105984009A4205D20821006A04F06AFB002070BD27
:1059940032783DB1AB1E062B8EBF00230B4AD35C7D
:1059A4001833DAB2204604F05EFB0028EED035440A
:1059B400B54203D1A3680133A360E8E723685A1C06
:1059C400226015F8012D1A70F2E700BF9BB60000A3
:1059D40038B5EFF31185202383F31288BFF36F8F5B
:1059E400064B9C6804F036FC85F31188BFF36F8F77
:1059F4002046BDE83840FDF735B800BFC41C002080
:105A040038B50A4B53F82040013053F82050A542D2
:105A140000D838BD606830B1037EDB0701D404F0E0
:105A2400EEFB0834F3E723689847FAE74CAC000030
:105A3400012270B52A4B032086B01A70FFF7E0FFED
:105A4400FDF7D8FBFCF72AFE0420FFF7D9FF254C0D
:105A5400254D2646AE4204F1300410D300F0D6FBA7
:105A6400204C224EAC4226D300F0E4FBFAF7E0FCD3
:105A74001F4A137B23F00103137306B070BD54F85F
:105A84000C3C059354F8103C049354F8143C0393D1
:105A940054F8183C029354F81C3C019354F8203CED
:105AA400009354E90A2354E90C0100F0E1F954F895
:105AB400303C5E65CDE7D4E90A23B3F1FF3F08BF6C
:105AC400B2F1FF3F05D052EA0301206803D100F090
:105AD4006DFC3034C6E73146183000F0E1FDF8E7DC
